:1000000031C04BC03FC349C048C047C046C045C0CF
:1000100044C043C042C041C040C03FC03EC00902CE
:10002000190001010080640904000001FF000000C4
:100030000705810308000A12011001000000088171
:10004000179F0C04010002000116035500530042E3
:1000500000740069006E00790053005000490004EC
:100060000309040011241FBECFE5D2E0DEBFCDBFDF
:1000700010E0A0E6B0E0E4EBF9E002C005900D92DC
:10008000A436B107D9F720E0A4E6B0E001C01D9284
:10009000AB3AB207E1F754D48BC4B2CFCF93DF931E
:1000A000FB01AC014C5F5F4FEC01A991CE0128E050
:1000B00030E070E860E0B72FBA2309F0C09AB09141
:1000C00060000B2E00C00000000000000A94D1F771
:1000D000C29AB09160000B2E00C00000000000002A
:1000E0000A94D1F7660FB1996F5FC098C298769560
:1000F0002150310921153105F1F6619384179507D7
:1001000009F0D2CFDF91CF91089580916F00909147
:1001100070009C012F5F3F4F3093700020936F0061
:1001200020916C0027FF02C0880F991F80FD286076
:1001300020936800292F269520936900969587952E
:1001400080936A0064E670E088E690E0A7CFEF92C3
:10015000FF921F93CF93DF931F92CDB7DEB7182F77
:100160007C018E2D811B861748F46983CEDF809138
:100170006700F70181937F016981F3CF862F0F908C
:10018000DF91CF911F91FF90EF900895DF92EF9252
:10019000FF920F931F93CF93DF93F62EE82EEC017F
:1001A00050E6D52E8C2F8E198F1580F5899180936E
:1001B0006B00ABDF809168008D258093680000E0C4
:1001C00010E080916D0090916E000817190750F7AC
:1001D00064E670E088E690E061DF809167009091CE
:1001E0006B00891308C090917200891721F09091DB
:1001F00071008913D7CF8091600090E045E0880FAF
:10020000991F4A95E1F7080F191FDBCF81E0DF91B5
:10021000CF911F910F91FF90EF90DF900895CF93B2
:10022000DF93EC012981211106C090939000809307
:100230008F0088E06BC0EC81F0E0213041F48081D8
:100240008883D0939000C0938F0081E05FC03A8193
:10025000223011F4308359C0432F477081E090E081
:10026000042E01C0880F0A94EAF7233021F4809508
:100270009081982304C0243021F49081982B90839E
:1002800044C0253049F430936000B99887B3856243
:1002900087BB88B3887D04C0263021F480E287BB09
:1002A00088BB33C0273051F4BE01CE010296F6DE82
:1002B000D0939000C0938F0084E028C0283031F4A0
:1002C000309372008B81809371001FC08C819D815F
:1002D0009093700080936F00293011F480E211C078
:1002E0002B3011F480EA0DC08A819B8190936E00BF
:1002F00080936D002A3011F480E403C02C3029F47F
:1003000080EC80936C008FEF01C080E0DF91CF9193
:100310000895DF92EF92FF920F931F93CF93DF9395
:10032000C8E0D0E0F12C60E8E62EDE2CDF0CD1BE78
:1003300096D18C01043389E018070CF4FD2CE69467
:100340002197209791F78FEF8F0D81BFCF2DD0E0B0
:10035000219681B790E0C817D9078CF080D18453DB
:10036000994097FF03C09195819591098017910756
:1003700014F4F1B68C0181B78F5F81BFEACFF1BE73
:1003800061B780E090E0DF91CF911F910F91FF90D6
:10039000EF90DF90FFC2CF93C62F2091800024FF03
:1003A00007C02091810038E823272093810003C0F3
:1003B0002AE520938000DC01E2E8F0E08C2F8E0F2C
:1003C0009D9191938E13FCCF6C2F82E890E043D1E6
:1003D000CC5FC0938000CF910895CF93DF9360915D
:1003E0009100635067FDA4C080918E00CCE0D0E006
:1003F000C81BD109CB56DF4F80918D008D3209F09B
:1004000086C0683009F092C083EC809375008AE55D
:1004100080936200109274008881807631F0CE0162
:10042000FEDE8F3F09F462C068C09A8110927E00A0
:100430008981811106C010927F002EE730E082E0B2
:1004400050C0853019F49093920048C0863081F5F1
:100450008B81813041F487E390E09093900080930A
:100460008F0082E121C0823041F48EE190E09093D0
:10047000900080938F0089E117C08330A1F491111F
:1004800008C08FE590E09093900080938F0084E007
:100490000BC0923041F489E490E0909390008093F7
:1004A0008F0086E101C080E090E49093740025C045
:1004B000883069F0893019F4909394000FC08A3025
:1004C00049F08B3059F48BE48093810007C024E914
:1004D00030E002C02EE730E081E003C02EE730E0DC
:1004E00080E03093900020938F0007C0988197FDA3
:1004F0008E8190E89093740007C09F81911104C091
:100500009E81981708F4892F809361000FC0809115
:10051000740087FF0BC0CE0139DE8F3F21F48EE1DE
:100520008093620003C081111092610010929100CB
:100530008091620084FF56C0809161008F3F09F472
:1005400051C0C82F893008F0C8E08C1B809361002F
:100550008091750098E8892780937500CC2389F1F4
:100560008091740087FF08C06C2F86E790E0EFDD74
:10057000C82F893088F525C040918F005091900098
:1005800086FF0BC0A6E7B0E0FA018C2F8A0F94918A
:100590009D9331968A13FBCF09C0DA01E6E7F0E0BC
:1005A0008C2F8E0F9D9191938E13FCCF2FEF2C0FDC
:1005B00030E02F5F3F4F240F351F30939000209382
:1005C0008F006C2F86E790E046D0CC5FCC3041F0B6
:1005D0008FEF8093610004C08FEF80936100CEE1C4
:1005E000C093620084E196B3987131F48150D9F7D9
:1005F0001092920010928C00C1E08111C0E08091B5
:1006000073008C1729F0C11101C083DEC093730001
:10061000DF91CF910895AB9A8BB780628BBF8BE44B
:10062000809381008AE5809380000895A82FB92FD8
:1006300080E090E041E050EA609530E009C02D9103
:1006400082279795879510F084279527305EC8F309
:100650006F5FA8F30895EADF8D939D930895A6E058
:1006600088279927AA9569F00197E1F3B499FCCFFF
:10067000B49BFECF81E09927A6B3019611F0A87133
:10068000D9F70895CF93CFB7CF93C395B49BE9F72C
:10069000B49B0BC0B49B09C0B49B07C0B49B05C0FE
:1006A000B49B03C0B49B01C0D5C00F92DF93C0912F
:1006B0008E00DD27CB56DF4F012EB49B03C0DF91A8
:1006C0000F90E6CF2F930F931F934F932FEF4F6F02
:1006D00006B304FB20F95F933F9350E03BE065C015
:1006E00016B30126502954FDC89556B3012704FBC3
:1006F00025F92F7306B3B1F05027102714FB26F904
:1007000006B22230F0F000C016B3012704FB27F92F
:100710000126502906B22430E8F54F77206816B339
:100720000000F6CF50274F7D206206B2102F000048
:1007300000C006B300265029102714FB26F906B284
:10074000E2CF4F7B06B3206400C0DACF01265029E8
:10075000187106B269F14E7F2160012F16B328C0CF
:10076000002650294D7F06B22260102F29C0012695
:1007700050294B7F06B22460012F2DC016B30126ED
:100780005029477F2860000006B22EC04F7E06B376
:10079000206130C0422706B3499300265029102714
:1007A00006B24FEF14FB20F9297F16B379F21871C6
:1007B00059F10126502906B2012704FB21F9237FB4
:1007C00006B371F2002650293150D0F006B210273E
:1007D00014FB22F9277E16B351F201265029012776
:1007E00004FB06B223F92F7C49F2000006B3102760
:1007F00014FB24F90026502906B22F7939F270CF64
:1008000010E21ABF002719C03B503195C31BD040DE
:1008100010E21ABF0881033C09F10B34F9F0209172
:100820008C001981110F1213EDCF4A81441F093634
:1008300051F10D3211F0013E29F7009393003F91E1
:100840005F914F911F910F912F91DF910F90CAB738
:10085000C5FD1BCFCF91CFBFCF91189520919300AD
:10086000222369F310919100112379F534307AF144
:100870003093910020938D0010918E003BE0311B4E
:1008800030938E0024C0009191000130F4F40AE509
:100890004F7049F43091620034FD1AC00093620039
:1008A000C5E7D0E019C03091800034FD11C000933D
:1008B0008000C1E8D0E010C0052710E000C021C0D2
:1008C000052710E0C89508BB14C03AE501C032ED19
:1008D000032EC0E0D0E032E017B31861C49A08B329
:1008E00017BB58E120E84FEF20FF052708BB2795ED
:1008F00017951C3F28F700004552B0F720FF052749
:10090000279508BB17951C3FB8F629913A9561F7D2
:10091000077E10919200110F08BBC250D04011F019
:1009200010938C0010E21ABF006117B3177E402F9E
:10093000477E54E05A95F1F708BB17BB48BB7FCF01
:1009400080E287BB88BB80E090E01CD08F3F09F03D
:1009500081BFBC9A84E1E2EBF1EF3197F1F700C07F
:1009600000008150C1F7BC982EE088E190E00FB6FE
:10097000F894A89581BD0FBE21BD4DDE7894A89551
:100980002CDDFDCFE199FECF9FBB8EBBE09A99276E
:100990008DB30895262FE199FECF1CBA9FBB8EBB65
:1009A0002DBB0FB6F894E29AE19A0FBE0196089516
:0409B000F894FFCFE9
:0409B40032FF5A00B4
:00000001FF
